{
  "_format": "hh-sol-artifact-1",
  "contractName": "BetCzar",
  "sourceName": "contracts/BetCzar.sol",
  "abi": [
    {
      "inputs": [],
      "stateMutability": "nonpayable",
      "type": "constructor"
    },
    {
      "inputs": [],
      "name": "InvalidId",
      "type": "error"
    },
    {
      "inputs": [],
      "name": "InvalidStatus",
      "type": "error"
    },
    {
      "anonymous": false,
      "inputs": [
        {
          "indexed": false,
          "internalType": "uint256",
          "name": "betId",
          "type": "uint256"
        },
        {
          "indexed": true,
          "internalType": "address",
          "name": "bettor1",
          "type": "address"
        },
        {
          "indexed": true,
          "internalType": "address",
          "name": "bettor2",
          "type": "address"
        },
        {
          "indexed": true,
          "internalType": "address",
          "name": "judge",
          "type": "address"
        },
        {
          "indexed": false,
          "internalType": "uint256",
          "name": "amt1",
          "type": "uint256"
        },
        {
          "indexed": false,
          "internalType": "uint256",
          "name": "amt2",
          "type": "uint256"
        }
      ],
      "name": "BetCreated",
      "type": "event"
    },
    {
      "anonymous": false,
      "inputs": [
        {
          "indexed": true,
          "internalType": "uint256",
          "name": "betId",
          "type": "uint256"
        },
        {
          "indexed": false,
          "internalType": "enum BetCzar.BetStatus",
          "name": "newStatus",
          "type": "uint8"
        }
      ],
      "name": "BetStatusChange",
      "type": "event"
    },
    {
      "inputs": [
        {
          "internalType": "uint256",
          "name": "betId",
          "type": "uint256"
        },
        {
          "internalType": "uint256",
          "name": "winner",
          "type": "uint256"
        }
      ],
      "name": "adjudicate",
      "outputs": [],
      "stateMutability": "nonpayable",
      "type": "function"
    },
    {
      "inputs": [
        {
          "internalType": "uint256",
          "name": "",
          "type": "uint256"
        }
      ],
      "name": "bets",
      "outputs": [
        {
          "internalType": "address",
          "name": "bettor1",
          "type": "address"
        },
        {
          "internalType": "address",
          "name": "bettor2",
          "type": "address"
        },
        {
          "internalType": "address",
          "name": "judge",
          "type": "address"
        },
        {
          "internalType": "enum BetCzar.BetStatus",
          "name": "status",
          "type": "uint8"
        },
        {
          "internalType": "uint256",
          "name": "amt1",
          "type": "uint256"
        },
        {
          "internalType": "uint256",
          "name": "amt2",
          "type": "uint256"
        }
      ],
      "stateMutability": "view",
      "type": "function"
    },
    {
      "inputs": [
        {
          "internalType": "address",
          "name": "_bettor1",
          "type": "address"
        },
        {
          "internalType": "address",
          "name": "_bettor2",
          "type": "address"
        },
        {
          "internalType": "address",
          "name": "_judge",
          "type": "address"
        },
        {
          "internalType": "uint256",
          "name": "_amt1",
          "type": "uint256"
        },
        {
          "internalType": "uint256",
          "name": "_amt2",
          "type": "uint256"
        }
      ],
      "name": "createBet",
      "outputs": [
        {
          "internalType": "uint256",
          "name": "betId",
          "type": "uint256"
        }
      ],
      "stateMutability": "nonpayable",
      "type": "function"
    },
    {
      "inputs": [
        {
          "internalType": "uint256",
          "name": "betId",
          "type": "uint256"
        }
      ],
      "name": "deposit1",
      "outputs": [],
      "stateMutability": "payable",
      "type": "function"
    },
    {
      "inputs": [
        {
          "internalType": "uint256",
          "name": "betId",
          "type": "uint256"
        }
      ],
      "name": "deposit2",
      "outputs": [],
      "stateMutability": "payable",
      "type": "function"
    },
    {
      "inputs": [
        {
          "internalType": "uint256",
          "name": "betId",
          "type": "uint256"
        }
      ],
      "name": "forfeit",
      "outputs": [],
      "stateMutability": "nonpayable",
      "type": "function"
    },
    {
      "inputs": [
        {
          "internalType": "uint256",
          "name": "betId",
          "type": "uint256"
        }
      ],
      "name": "getStatus",
      "outputs": [
        {
          "internalType": "enum BetCzar.BetStatus",
          "name": "",
          "type": "uint8"
        }
      ],
      "stateMutability": "view",
      "type": "function"
    },
    {
      "inputs": [],
      "name": "owner",
      "outputs": [
        {
          "internalType": "address",
          "name": "",
          "type": "address"
        }
      ],
      "stateMutability": "view",
      "type": "function"
    },
    {
      "inputs": [
        {
          "internalType": "uint256",
          "name": "betId",
          "type": "uint256"
        }
      ],
      "name": "recallDeposit",
      "outputs": [],
      "stateMutability": "nonpayable",
      "type": "function"
    },
    {
      "inputs": [
        {
          "internalType": "uint256",
          "name": "betId",
          "type": "uint256"
        }
      ],
      "name": "sendRefund1",
      "outputs": [],
      "stateMutability": "nonpayable",
      "type": "function"
    },
    {
      "inputs": [
        {
          "internalType": "uint256",
          "name": "betId",
          "type": "uint256"
        }
      ],
      "name": "sendRefund2",
      "outputs": [],
      "stateMutability": "nonpayable",
      "type": "function"
    },
    {
      "inputs": [
        {
          "internalType": "uint256",
          "name": "betId",
          "type": "uint256"
        }
      ],
      "name": "sendWinnings",
      "outputs": [],
      "stateMutability": "nonpayable",
      "type": "function"
    }
  ],
  "bytecode": "0x608060405234801561001057600080fd5b50336000806101000a81548173ffffffffffffffffffffffffffffffffffffffff021916908373ffffffffffffffffffffffffffffffffffffffff1602179055506126cc806100606000396000f3fe6080604052600436106100a75760003560e01c80638da5cb5b116100645780638da5cb5b146101d65780638fbef12c146102015780639d2fc3c81461022a5780639fabbd4b14610253578063b4e731911461026f578063f5826f1014610298576100a7565b80630961fa32146100ac578063222f6182146100e957806322af00fa146101055780633ed546ab14610147578063537cf9ab146101705780635c622a0e14610199575b600080fd5b3480156100b857600080fd5b506100d360048036038101906100ce919061212b565b6102c1565b6040516100e091906121b5565b60405180910390f35b61010360048036038101906100fe91906121d0565b61051c565b005b34801561011157600080fd5b5061012c600480360381019061012791906121d0565b6106e7565b60405161013e96959493929190612283565b60405180910390f35b34801561015357600080fd5b5061016e600480360381019061016991906121d0565b6107a0565b005b34801561017c57600080fd5b50610197600480360381019061019291906121d0565b6109de565b005b3480156101a557600080fd5b506101c060048036038101906101bb91906121d0565b611328565b6040516101cd91906122e4565b60405180910390f35b3480156101e257600080fd5b506101eb61133e565b6040516101f891906122ff565b60405180910390f35b34801561020d57600080fd5b50610228600480360381019061022391906121d0565b611362565b005b34801561023657600080fd5b50610251600480360381019061024c919061231a565b611630565b005b61026d600480360381019061026891906121d0565b611913565b005b34801561027b57600080fd5b50610296600480360381019061029191906121d0565b611adf565b005b3480156102a457600080fd5b506102bf60048036038101906102ba91906121d0565b611c8e565b005b6000600180549050905060016040518060c001604052808873ffffffffffffffffffffffffffffffffffffffff1681526020018773ffffffffffffffffffffffffffffffffffffffff1681526020018673ffffffffffffffffffffffffffffffffffffffff1681526020016000600b8111156103405761033f61220c565b5b815260200185815260200184815250908060018154018082558091505060019003906000526020600020906005020160009091909190915060008201518160000160006101000a81548173ffffffffffffffffffffffffffffffffffffffff021916908373ffffffffffffffffffffffffffffffffffffffff16021790555060208201518160010160006101000a81548173ffffffffffffffffffffffffffffffffffffffff021916908373ffffffffffffffffffffffffffffffffffffffff16021790555060408201518160020160006101000a81548173ffffffffffffffffffffffffffffffffffffffff021916908373ffffffffffffffffffffffffffffffffffffffff16021790555060608201518160020160146101000a81548160ff0219169083600b8111156104785761047761220c565b5b02179055506080820151816003015560a0820151816004015550508373ffffffffffffffffffffffffffffffffffffffff168573ffffffffffffffffffffffffffffffffffffffff168773ffffffffffffffffffffffffffffffffffffffff167f419f3cce7f97d517e67bad0b92b975544bfe1868fd85d1df8fc1f0e8eaacdc6184878760405161050b9392919061235a565b60405180910390a495945050505050565b600061052782611e3d565b90508060a00151341461053957600080fd5b6000600b81111561054d5761054c61220c565b5b8160600151600b8111156105645761056361220c565b5b036105f457600180838154811061057e5761057d612391565b5b906000526020600020906005020160020160146101000a81548160ff0219169083600b8111156105b1576105b061220c565b5b0217905550817f4e26688b4166ba85d7913d6ce4cfc5951cbd6808038c93a2432b12292752843860016040516105e791906122e4565b60405180910390a26106e3565b6002600b8111156106085761060761220c565b5b8160600151600b81111561061f5761061e61220c565b5b036106b05760036001838154811061063a57610639612391565b5b906000526020600020906005020160020160146101000a81548160ff0219169083600b81111561066d5761066c61220c565b5b0217905550817f4e26688b4166ba85d7913d6ce4cfc5951cbd6808038c93a2432b12292752843860036040516106a391906122e4565b60405180910390a26106e2565b6040517ff525e32000000000000000000000000000000000000000000000000000000000815260040160405180910390fd5b5b5050565b600181815481106106f757600080fd5b90600052602060002090600502016000915090508060000160009054906101000a900473ffffffffffffffffffffffffffffffffffffffff16908060010160009054906101000a900473ffffffffffffffffffffffffffffffffffffffff16908060020160009054906101000a900473ffffffffffffffffffffffffffffffffffffffff16908060020160149054906101000a900460ff16908060030154908060040154905086565b60006107ab82611e3d565b90506003600b8111156107c1576107c061220c565b5b8160600151600b8111156107d8576107d761220c565b5b14610818576040517f08c379a000000000000000000000000000000000000000000000000000000000815260040161080f9061241d565b60405180910390fd5b806000015173ffffffffffffffffffffffffffffffffffffffff163373ffffffffffffffffffffffffffffffffffffffff16036108db5760056001838154811061086557610864612391565b5b906000526020600020906005020160020160146101000a81548160ff0219169083600b8111156108985761089761220c565b5b0217905550817f4e26688b4166ba85d7913d6ce4cfc5951cbd6808038c93a2432b12292752843860056040516108ce91906122e4565b60405180910390a26109da565b806020015173ffffffffffffffffffffffffffffffffffffffff163373ffffffffffffffffffffffffffffffffffffffff160361099e5760046001838154811061092857610927612391565b5b906000526020600020906005020160020160146101000a81548160ff0219169083600b81111561095b5761095a61220c565b5b0217905550817f4e26688b4166ba85d7913d6ce4cfc5951cbd6808038c93a2432b122927528438600460405161099191906122e4565b60405180910390a26109d9565b6040517f08c379a00000000000000000000000000000000000000000000000000000000081526004016109d090612489565b60405180910390fd5b5b5050565b60006109e982611e3d565b90506004600b8111156109ff576109fe61220c565b5b8160600151600b811115610a1657610a1561220c565b5b03610b6b57600660018381548110610a3157610a30612391565b5b906000526020600020906005020160020160146101000a81548160ff0219169083600b811115610a6457610a6361220c565b5b02179055506000816000015173ffffffffffffffffffffffffffffffffffffffff168260a001518360800151610a9a91906124d8565b604051610aa69061253d565b60006040518083038185875af1925050503d8060008114610ae3576040519150601f19603f3d011682016040523d82523d6000602084013e610ae8565b606091505b5050905080610b2c576040517f08c379a0000000000000000000000000000000000000000000000000000000008152600401610b239061259e565b60405180910390fd5b827f4e26688b4166ba85d7913d6ce4cfc5951cbd6808038c93a2432b1229275284386006604051610b5d91906122e4565b60405180910390a250611324565b6005600b811115610b7f57610b7e61220c565b5b8160600151600b811115610b9657610b9561220c565b5b03610ceb57600760018381548110610bb157610bb0612391565b5b906000526020600020906005020160020160146101000a81548160ff0219169083600b811115610be457610be361220c565b5b02179055506000816020015173ffffffffffffffffffffffffffffffffffffffff168260a001518360800151610c1a91906124d8565b604051610c269061253d565b60006040518083038185875af1925050503d8060008114610c63576040519150601f19603f3d011682016040523d82523d6000602084013e610c68565b606091505b5050905080610cac576040517f08c379a0000000000000000000000000000000000000000000000000000000008152600401610ca39061259e565b60405180910390fd5b827f4e26688b4166ba85d7913d6ce4cfc5951cbd6808038c93a2432b1229275284386007604051610cdd91906122e4565b60405180910390a250611323565b6008600b811115610cff57610cfe61220c565b5b8160600151600b811115610d1657610d1561220c565b5b0361100c57600960018381548110610d3157610d30612391565b5b906000526020600020906005020160020160146101000a81548160ff0219169083600b811115610d6457610d6361220c565b5b02179055506000816000015173ffffffffffffffffffffffffffffffffffffffff168260800151604051610d979061253d565b60006040518083038185875af1925050503d8060008114610dd4576040519150601f19603f3d011682016040523d82523d6000602084013e610dd9565b606091505b5050905060008115610e6d5760098360600190600b811115610dfe57610dfd61220c565b5b9081600b811115610e1257610e1161220c565b5b81525050600b9050600b60018581548110610e3057610e2f612391565b5b906000526020600020906005020160020160146101000a81548160ff0219169083600b811115610e6357610e6261220c565b5b0217905550610ec0565b600a9050600a60018581548110610e8757610e86612391565b5b906000526020600020906005020160020160146101000a81548160ff0219169083600b811115610eba57610eb961220c565b5b02179055505b826020015173ffffffffffffffffffffffffffffffffffffffff168360a00151604051610eec9061253d565b60006040518083038185875af1925050503d8060008114610f29576040519150601f19603f3d011682016040523d82523d6000602084013e610f2e565b606091505b5050809250508115610f7757837f4e26688b4166ba85d7913d6ce4cfc5951cbd6808038c93a2432b12292752843882604051610f6a91906122e4565b60405180910390a2611005565b826060015160018581548110610f9057610f8f612391565b5b906000526020600020906005020160020160146101000a81548160ff0219169083600b811115610fc357610fc261220c565b5b0217905550837f4e26688b4166ba85d7913d6ce4cfc5951cbd6808038c93a2432b1229275284388460600151604051610ffc91906122e4565b60405180910390a25b5050611322565b6009600b8111156110205761101f61220c565b5b8160600151600b8111156110375761103661220c565b5b0361117d57600b6001838154811061105257611051612391565b5b906000526020600020906005020160020160146101000a81548160ff0219169083600b8111156110855761108461220c565b5b02179055506000816020015173ffffffffffffffffffffffffffffffffffffffff168260a001516040516110b89061253d565b60006040518083038185875af1925050503d80600081146110f5576040519150601f19603f3d011682016040523d82523d6000602084013e6110fa565b606091505b505090508061113e576040517f08c379a00000000000000000000000000000000000000000000000000000000081526004016111359061259e565b60405180910390fd5b827f4e26688b4166ba85d7913d6ce4cfc5951cbd6808038c93a2432b122927528438600b60405161116f91906122e4565b60405180910390a250611321565b600a600b8111156111915761119061220c565b5b8160600151600b8111156111a8576111a761220c565b5b036112ee57600b600183815481106111c3576111c2612391565b5b906000526020600020906005020160020160146101000a81548160ff0219169083600b8111156111f6576111f561220c565b5b02179055506000816000015173ffffffffffffffffffffffffffffffffffffffff1682608001516040516112299061253d565b60006040518083038185875af1925050503d8060008114611266576040519150601f19603f3d011682016040523d82523d6000602084013e61126b565b606091505b50509050806112af576040517f08c379a00000000000000000000000000000000000000000000000000000000081526004016112a69061259e565b60405180910390fd5b827f4e26688b4166ba85d7913d6ce4cfc5951cbd6808038c93a2432b122927528438600b6040516112e091906122e4565b60405180910390a250611320565b6040517ff525e32000000000000000000000000000000000000000000000000000000000815260040160405180910390fd5b5b5b5b5b5050565b600061133382611e3d565b606001519050919050565b60008054906101000a900473ffffffffffffffffffffffffffffffffffffffff1681565b600061136d82611e3d565b90506000816000015173ffffffffffffffffffffffffffffffffffffffff163373ffffffffffffffffffffffffffffffffffffffff1603611416576002600b8111156113bc576113bb61220c565b5b8260600151600b8111156113d3576113d261220c565b5b1461140a576040517ff525e32000000000000000000000000000000000000000000000000000000000815260040160405180910390fd5b816080015190506114f7565b816020015173ffffffffffffffffffffffffffffffffffffffff163373ffffffffffffffffffffffffffffffffffffffff16036114bb576001600b8111156114615761146061220c565b5b8260600151600b8111156114785761147761220c565b5b146114af576040517ff525e32000000000000000000000000000000000000000000000000000000000815260040160405180910390fd5b8160a0015190506114f6565b6040517f08c379a00000000000000000000000000000000000000000000000000000000081526004016114ed90612489565b60405180910390fd5b5b60006001848154811061150d5761150c612391565b5b906000526020600020906005020160020160146101000a81548160ff0219169083600b8111156115405761153f61220c565b5b021790555060003373ffffffffffffffffffffffffffffffffffffffff168260405161156b9061253d565b60006040518083038185875af1925050503d80600081146115a8576040519150601f19603f3d011682016040523d82523d6000602084013e6115ad565b606091505b50509050806115f1576040517f08c379a00000000000000000000000000000000000000000000000000000000081526004016115e89061259e565b60405180910390fd5b837f4e26688b4166ba85d7913d6ce4cfc5951cbd6808038c93a2432b122927528438600060405161162291906122e4565b60405180910390a250505050565b60038110611673576040517f08c379a000000000000000000000000000000000000000000000000000000000815260040161166a9061260a565b60405180910390fd5b600061167e83611e3d565b9050806040015173ffffffffffffffffffffffffffffffffffffffff163373ffffffffffffffffffffffffffffffffffffffff16146116f2576040517f08c379a00000000000000000000000000000000000000000000000000000000081526004016116e990612676565b60405180910390fd5b6003600b8111156117065761170561220c565b5b8160600151600b81111561171d5761171c61220c565b5b1461175d576040517f08c379a00000000000000000000000000000000000000000000000000000000081526004016117549061241d565b60405180910390fd5b600182036117f15760046001848154811061177b5761177a612391565b5b906000526020600020906005020160020160146101000a81548160ff0219169083600b8111156117ae576117ad61220c565b5b0217905550827f4e26688b4166ba85d7913d6ce4cfc5951cbd6808038c93a2432b12292752843860046040516117e491906122e4565b60405180910390a261190e565b600282036118855760056001848154811061180f5761180e612391565b5b906000526020600020906005020160020160146101000a81548160ff0219169083600b8111156118425761184161220c565b5b0217905550827f4e26688b4166ba85d7913d6ce4cfc5951cbd6808038c93a2432b122927528438600560405161187891906122e4565b60405180910390a261190d565b60086001848154811061189b5761189a612391565b5b906000526020600020906005020160020160146101000a81548160ff0219169083600b8111156118ce576118cd61220c565b5b0217905550827f4e26688b4166ba85d7913d6ce4cfc5951cbd6808038c93a2432b122927528438600860405161190491906122e4565b60405180910390a25b5b505050565b600061191e82611e3d565b90508060800151341461193057600080fd5b6000600b8111156119445761194361220c565b5b8160600151600b81111561195b5761195a61220c565b5b036119ec5760026001838154811061197657611975612391565b5b906000526020600020906005020160020160146101000a81548160ff0219169083600b8111156119a9576119a861220c565b5b0217905550817f4e26688b4166ba85d7913d6ce4cfc5951cbd6808038c93a2432b12292752843860026040516119df91906122e4565b60405180910390a2611adb565b6001600b811115611a00576119ff61220c565b5b8160600151600b811115611a1757611a1661220c565b5b03611aa857600360018381548110611a3257611a31612391565b5b906000526020600020906005020160020160146101000a81548160ff0219169083600b811115611a6557611a6461220c565b5b0217905550817f4e26688b4166ba85d7913d6ce4cfc5951cbd6808038c93a2432b1229275284386003604051611a9b91906122e4565b60405180910390a2611ada565b6040517ff525e32000000000000000000000000000000000000000000000000000000000815260040160405180910390fd5b5b5050565b6000611aea82611e3d565b90506008600b811115611b0057611aff61220c565b5b8160600151600b811115611b1757611b1661220c565b5b14611b4e576040517ff525e32000000000000000000000000000000000000000000000000000000000815260040160405180910390fd5b600a60018381548110611b6457611b63612391565b5b906000526020600020906005020160020160146101000a81548160ff0219169083600b811115611b9757611b9661220c565b5b02179055506000816020015173ffffffffffffffffffffffffffffffffffffffff168260a00151604051611bca9061253d565b60006040518083038185875af1925050503d8060008114611c07576040519150601f19603f3d011682016040523d82523d6000602084013e611c0c565b606091505b5050905080611c50576040517f08c379a0000000000000000000000000000000000000000000000000000000008152600401611c479061259e565b60405180910390fd5b827f4e26688b4166ba85d7913d6ce4cfc5951cbd6808038c93a2432b122927528438600a604051611c8191906122e4565b60405180910390a2505050565b6000611c9982611e3d565b90506008600b811115611caf57611cae61220c565b5b8160600151600b811115611cc657611cc561220c565b5b14611cfd576040517ff525e32000000000000000000000000000000000000000000000000000000000815260040160405180910390fd5b600960018381548110611d1357611d12612391565b5b906000526020600020906005020160020160146101000a81548160ff0219169083600b811115611d4657611d4561220c565b5b02179055506000816000015173ffffffffffffffffffffffffffffffffffffffff168260800151604051611d799061253d565b60006040518083038185875af1925050503d8060008114611db6576040519150601f19603f3d011682016040523d82523d6000602084013e611dbb565b606091505b5050905080611dff576040517f08c379a0000000000000000000000000000000000000000000000000000000008152600401611df69061259e565b60405180910390fd5b827f4e26688b4166ba85d7913d6ce4cfc5951cbd6808038c93a2432b1229275284386009604051611e3091906122e4565b60405180910390a2505050565b611e45612008565b6001805490508210611e83576040517fdfa1a40800000000000000000000000000000000000000000000000000000000815260040160405180910390fd5b60018281548110611e9757611e96612391565b5b90600052602060002090600502016040518060c00160405290816000820160009054906101000a900473ffffffffffffffffffffffffffffffffffffffff1673ffffffffffffffffffffffffffffffffffffffff1673ffffffffffffffffffffffffffffffffffffffff1681526020016001820160009054906101000a900473ffffffffffffffffffffffffffffffffffffffff1673ffffffffffffffffffffffffffffffffffffffff1673ffffffffffffffffffffffffffffffffffffffff1681526020016002820160009054906101000a900473ffffffffffffffffffffffffffffffffffffffff1673ffffffffffffffffffffffffffffffffffffffff1673ffffffffffffffffffffffffffffffffffffffff1681526020016002820160149054906101000a900460ff16600b811115611fd757611fd661220c565b5b600b811115611fe957611fe861220c565b5b8152602001600382015481526020016004820154815250509050919050565b6040518060c00160405280600073ffffffffffffffffffffffffffffffffffffffff168152602001600073ffffffffffffffffffffffffffffffffffffffff168152602001600073ffffffffffffffffffffffffffffffffffffffff1681526020016000600b81111561207e5761207d61220c565b5b815260200160008152602001600081525090565b600080fd5b600073ffffffffffffffffffffffffffffffffffffffff82169050919050565b60006120c282612097565b9050919050565b6120d2816120b7565b81146120dd57600080fd5b50565b6000813590506120ef816120c9565b92915050565b6000819050919050565b612108816120f5565b811461211357600080fd5b50565b600081359050612125816120ff565b92915050565b600080600080600060a0868803121561214757612146612092565b5b6000612155888289016120e0565b9550506020612166888289016120e0565b9450506040612177888289016120e0565b935050606061218888828901612116565b925050608061219988828901612116565b9150509295509295909350565b6121af816120f5565b82525050565b60006020820190506121ca60008301846121a6565b92915050565b6000602082840312156121e6576121e5612092565b5b60006121f484828501612116565b91505092915050565b612206816120b7565b82525050565b7f4e487b7100000000000000000000000000000000000000000000000000000000600052602160045260246000fd5b600c811061224c5761224b61220c565b5b50565b600081905061225d8261223b565b919050565b600061226d8261224f565b9050919050565b61227d81612262565b82525050565b600060c08201905061229860008301896121fd565b6122a560208301886121fd565b6122b260408301876121fd565b6122bf6060830186612274565b6122cc60808301856121a6565b6122d960a08301846121a6565b979650505050505050565b60006020820190506122f96000830184612274565b92915050565b600060208201905061231460008301846121fd565b92915050565b6000806040838503121561233157612330612092565b5b600061233f85828601612116565b925050602061235085828601612116565b9150509250929050565b600060608201905061236f60008301866121a6565b61237c60208301856121a6565b61238960408301846121a6565b949350505050565b7f4e487b7100000000000000000000000000000000000000000000000000000000600052603260045260246000fd5b600082825260208201905092915050565b7f6e6f742070656e64696e67000000000000000000000000000000000000000000600082015250565b6000612407600b836123c0565b9150612412826123d1565b602082019050919050565b60006020820190508181036000830152612436816123fa565b9050919050565b7f6e6f74206120626574746f720000000000000000000000000000000000000000600082015250565b6000612473600c836123c0565b915061247e8261243d565b602082019050919050565b600060208201905081810360008301526124a281612466565b9050919050565b7f4e487b7100000000000000000000000000000000000000000000000000000000600052601160045260246000fd5b60006124e3826120f5565b91506124ee836120f5565b9250828201905080821115612506576125056124a9565b5b92915050565b600081905092915050565b50565b600061252760008361250c565b915061253282612517565b600082019050919050565b60006125488261251a565b9150819050919050565b7f73656e64206661696c6564000000000000000000000000000000000000000000600082015250565b6000612588600b836123c0565b915061259382612552565b602082019050919050565b600060208201905081810360008301526125b78161257b565b9050919050565b7f696e76616c69642077696e6e6572000000000000000000000000000000000000600082015250565b60006125f4600e836123c0565b91506125ff826125be565b602082019050919050565b60006020820190508181036000830152612623816125e7565b9050919050565b7f6e6f74206a756467650000000000000000000000000000000000000000000000600082015250565b60006126606009836123c0565b915061266b8261262a565b602082019050919050565b6000602082019050818103600083015261268f81612653565b905091905056fea26469706673582212205fa90405793df267074d8dd4050c0de900861d350fe1d7ba915acfee0e30b05a64736f6c63430008110033",
  "linkReferences": {},
  "deployedLinkReferences": {}
}